:100000000C942A000C9447000C9447000C94470071
:100010000C9447000C9449000C9447000C94470042
:100020000C9447000C9447000C9447000C94470034
:100030000C9447000C9447000C9447000C94470024
:100040000C94F5000C9447000C9447000C94470066
:100050000C94470011241FBECFE5D8E0DEBFCDBF12
:1000600010E0A0E6B0E0EAEAF4E002C005900D92EC
:10007000AC36B107D9F720E0ACE6B0E001C01D9284
:10008000AD37B207E1F70E948D010C9453020C9436
:1000900000001F920F920FB60F9211242F935F93BF
:1000A0006F937F938F939F93AF93BF93EF93FF9340
:1000B00012BA20917C0081E090E002C0880F991F65
:1000C0002A95E2F7809588BB80917C008230A1F16F
:1000D00030F4882361F0813009F06EC01AC084309A
:1000E00009F44AC0B8F1853009F066C058C0809163
:1000F0007A0090917B0068EE73E00E94FD0164E657
:1001000070E00E94FD01FB01E05AFF4F808182BB3D
:1001100053C080917A0090917B0064E670E00E9469
:10012000FD016AE070E00E94FD01FB01E05AFF4F13
:100130008081806882BB40C080917A0090917B0072
:100140006AE070E00E94FD01FC01E05AFF4F8081EF
:1001500082BB32C0809178009091790068EE73E0A4
:100160000E94FD0164E670E00E94FD01FB01E05A7F
:10017000FF4F808182BB20C08091780090917900F0
:1001800064E670E00E94FD016AE070E00E94FD01FB
:10019000FB01E05AFF4F8081806882BB0DC08091D7
:1001A0007A0090917B006AE070E00E94FD01FC0102
:1001B000E05AFF4F808182BB80917C00982F9F5F27
:1001C00090937C00863010F010927C00FF91EF91AC
:1001D000BF91AF919F918F917F916F915F912F917F
:1001E0000F900FBE0F901F9018951F920F920FB691
:1001F0000F921124CF92DF92EF92FF922F933F93B1
:100200006F937F938F939F93AF93BF9316B887B1EC
:100210008F70813071F517B884B195B1C0907400BA
:10022000D0907500E0907600F09077009C01220F4E
:10023000331F820F931F9C01220F331F220F331F86
:10024000220F331FA3E8BDE20E94330296958795E3
:100250009695879596958795C80ED91EE11CF11C39
:10026000C0927400D0927500E0927600F092770010
:1002700041C081E087B984B195B1C0907000D09041
:100280007100E0907200F09073009C01220F331F08
:10029000820F931F9C01220F331F220F331F220F47
:1002A000331FA3E8BDE20E94330296958795969589
:1002B000879596958795C80ED91EE11CF11CC092B2
:1002C0007000D0927100E0927200F0927300809101
:1002D0006C0090916D00A0916E00B0916F0001963E
:1002E000A11DB11D80936C0090936D00A0936E00D2
:1002F000B0936F008FEC86B9BF91AF919F918F91B2
:100300007F916F913F912F91FF90EF90DF90CF9071
:100310000F900FBE0F901F9018958FEF81BB8FE34A
:1003200087BB12BA18BA89B7806489BF85B5826065
:1003300085BD8EEE86B981E087B983ED90E30197A4
:10034000F1F700C00000789480916C0090916D00EE
:10035000A0916E00B0916F0081399140A105B10567
:1003600008F444C06091740070917500809176002B
:100370009091770020916C0030916D0040916E005B
:1003800050916F000E94110230937B0020937A00FD
:100390006091700070917100809172009091730073
:1003A00020916C0030916D0040916E0050916F0073
:1003B0000E941102309379002093780010926C0013
:1003C00010926D0010926E0010926F0010927400E7
:1003D00010927500109276001092770010927000C3
:1003E00010927100109272001092730087EA91E6E9
:1003F0000197F1F700C00000A7CF97FB072E16F476
:10040000009407D077FD09D00E943F0207FC05D079
:100410003EF4909581959F4F0895709561957F4F1B
:100420000895A1E21A2EAA1BBB1BFD010DC0AA1F35
:10043000BB1FEE1FFF1FA217B307E407F50720F04D
:10044000A21BB30BE40BF50B661F771F881F991FC8
:100450001A9469F760957095809590959B01AC0111
:10046000BD01CF010895A29FB001B39FC001A39F1A
:1004700001D0B29F700D811D1124911D0895AA1BFA
:10048000BB1B51E107C0AA1FBB1FA617B70710F07F
:10049000A61BB70B881F991F5A95A9F780959095B1
:0A04A000BC01CD010895F894FFCFD0
:0C04AA003F065B4F666D7D077F6F800092
:00000001FF
